// Add predefined macros for your project here. For example:
// #define THE_ANSWER 42
{
    "txid": "0c57697f077ea8ed2e1cdffe7cb582e05b0aa66730ac861136db9d5553fae548",
    "hash": "0c57697f077ea8ed2e1cdffe7cb582e05b0aa66730ac861136db9d5553fae548",
    "version": 2,
    "size": 90,
    "vsize": 90,
    "weight": 360,
    "locktime": 0,
    "vin": [
        {
            "coinbase": "038cb41600",
            "txid": "0000000000000000000000000000000000000000000000000000000000000000",
            "vout": 4294967295,
            "scriptSig": {
                "asm": "1488012 0",
                "hex": "038cb41600"
            },
            "sequence": 4294967295
        }
    ],
    "vout": [
        {
            "type": "coinbase",
            "value": 30,
            "valueSat": 3000000000,
            "vout.n": 0,
            "scriptPubKey": {
                "asm": "OP_DUP OP_HASH160 23ed9d3d1ee1dfb42cc58bd7e2489706d4f99c84 OP_EQUALVERIFY OP_CHECKSIG",
                "hex": "76a91423ed9d3d1ee1dfb42cc58bd7e2489706d4f99c8488ac",
                "reqSigs": 1,
                "type": "pubkeyhash",
                "addresses": [
                    "VDwCE3LES8YtGq8rjxaQ52Qcy7hjcBsu1u"
                ]
            }
        }
    ],
    "hex": "02000000000000010000000000000000000000000000000000000000000000000000000000000000ffffffff05038cb41600ffffffff0101005ed0b2000000001976a91423ed9d3d1ee1dfb42cc58bd7e2489706d4f99c8488ac",
    "blockhash": "9df1f92830edff160ec780bb47cd345b0701b83539f71553e07cf7ff5dbd179e",
    "confirmations": 4,
    "time": 1637307779,
    "blocktime": 1637307779
}